{
    "_format": "hh-sol-artifact-1",
    "contractName": "Kisses",
    "sourceName": "contracts/Kisses.sol",
    "abi": [
        {
            "inputs": [
                {
                    "internalType": "address",
                    "name": "_owner",
                    "type": "address"
                }
            ],
            "stateMutability": "nonpayable",
            "type": "constructor"
        },
        {
            "inputs": [
                {
                    "internalType": "address",
                    "name": "",
                    "type": "address"
                },
                {
                    "internalType": "address",
                    "name": "",
                    "type": "address"
                }
            ],
            "name": "actions",
            "outputs": [
                {
                    "internalType": "string",
                    "name": "",
                    "type": "string"
                }
            ],
            "stateMutability": "view",
            "type": "function"
        },
        {
            "inputs": [
                {
                    "internalType": "address",
                    "name": "_from",
                    "type": "address"
                },
                {
                    "internalType": "address",
                    "name": "_to",
                    "type": "address"
                }
            ],
            "name": "getAction",
            "outputs": [
                {
                    "internalType": "string",
                    "name": "",
                    "type": "string"
                }
            ],
            "stateMutability": "view",
            "type": "function"
        },
        {
            "inputs": [],
            "name": "getLatestActions",
            "outputs": [
                {
                    "components": [
                        {
                            "internalType": "address",
                            "name": "player1",
                            "type": "address"
                        },
                        {
                            "internalType": "address",
                            "name": "player2",
                            "type": "address"
                        },
                        {
                            "internalType": "string",
                            "name": "action1",
                            "type": "string"
                        },
                        {
                            "internalType": "string",
                            "name": "action2",
                            "type": "string"
                        }
                    ],
                    "internalType": "struct Kisses.Action[]",
                    "name": "",
                    "type": "tuple[]"
                }
            ],
            "stateMutability": "view",
            "type": "function"
        },
        {
            "inputs": [],
            "name": "getLeaderboard",
            "outputs": [
                {
                    "components": [
                        {
                            "internalType": "address",
                            "name": "playerAddress",
                            "type": "address"
                        },
                        {
                            "internalType": "uint256",
                            "name": "playerPoints",
                            "type": "uint256"
                        }
                    ],
                    "internalType": "struct Kisses.Player[10]",
                    "name": "",
                    "type": "tuple[10]"
                }
            ],
            "stateMutability": "view",
            "type": "function"
        },
        {
            "inputs": [
                {
                    "internalType": "address",
                    "name": "_player",
                    "type": "address"
                }
            ],
            "name": "getPoints",
            "outputs": [
                {
                    "internalType": "uint256",
                    "name": "",
                    "type": "uint256"
                }
            ],
            "stateMutability": "view",
            "type": "function"
        },
        {
            "inputs": [
                {
                    "internalType": "address",
                    "name": "_sender",
                    "type": "address"
                },
                {
                    "internalType": "address",
                    "name": "_recipient",
                    "type": "address"
                }
            ],
            "name": "kiss",
            "outputs": [],
            "stateMutability": "nonpayable",
            "type": "function"
        },
        {
            "inputs": [
                {
                    "internalType": "uint256",
                    "name": "",
                    "type": "uint256"
                }
            ],
            "name": "latestActions",
            "outputs": [
                {
                    "internalType": "address",
                    "name": "player1",
                    "type": "address"
                },
                {
                    "internalType": "address",
                    "name": "player2",
                    "type": "address"
                },
                {
                    "internalType": "string",
                    "name": "action1",
                    "type": "string"
                },
                {
                    "internalType": "string",
                    "name": "action2",
                    "type": "string"
                }
            ],
            "stateMutability": "view",
            "type": "function"
        },
        {
            "inputs": [
                {
                    "internalType": "uint256",
                    "name": "",
                    "type": "uint256"
                }
            ],
            "name": "leaderboard",
            "outputs": [
                {
                    "internalType": "address",
                    "name": "playerAddress",
                    "type": "address"
                },
                {
                    "internalType": "uint256",
                    "name": "playerPoints",
                    "type": "uint256"
                }
            ],
            "stateMutability": "view",
            "type": "function"
        },
        {
            "inputs": [],
            "name": "owner",
            "outputs": [
                {
                    "internalType": "address",
                    "name": "",
                    "type": "address"
                }
            ],
            "stateMutability": "view",
            "type": "function"
        },
        {
            "inputs": [
                {
                    "internalType": "address",
                    "name": "",
                    "type": "address"
                }
            ],
            "name": "points",
            "outputs": [
                {
                    "internalType": "uint256",
                    "name": "",
                    "type": "uint256"
                }
            ],
            "stateMutability": "view",
            "type": "function"
        },
        {
            "inputs": [
                {
                    "internalType": "address",
                    "name": "_sender",
                    "type": "address"
                },
                {
                    "internalType": "address",
                    "name": "_recipient",
                    "type": "address"
                }
            ],
            "name": "slap",
            "outputs": [],
            "stateMutability": "nonpayable",
            "type": "function"
        }
    ],
    "bytecode": "0x608060405234801561001057600080fd5b50604051611a0f380380611a0f83398101604081905261002f91610054565b600080546001600160a01b0319166001600160a01b0392909216919091179055610084565b60006020828403121561006657600080fd5b81516001600160a01b038116811461007d57600080fd5b9392505050565b61197c806100936000396000f3fe608060405234801561001057600080fd5b50600436106100a95760003560e01c80638da5cb5b116100715780638da5cb5b146101425780638ffe63661461016d578063bf36839914610190578063d693c902146101c2578063da5efe13146101d7578063ee204abb146101ea57600080fd5b806334d300a5146100ae578063358b8166146100d75780636526ba25146101055780636d763a6e146101185780637fb0b04f1461012d575b600080fd5b6100c16100bc3660046113bb565b610213565b6040516100ce919061143e565b60405180910390f35b6100f76100e5366004611458565b60026020526000908152604090205481565b6040519081526020016100ce565b6100c16101133660046113bb565b6102b8565b610120610373565b6040516100ce9190611473565b6101356103d9565b6040516100ce91906114ba565b600054610155906001600160a01b031681565b6040516001600160a01b0390911681526020016100ce565b61018061017b366004611564565b610576565b6040516100ce949392919061157d565b6101a361019e366004611564565b6106d0565b604080516001600160a01b0390931683526020830191909152016100ce565b6101d56101d03660046113bb565b6106fc565b005b6101d56101e53660046113bb565b6107f8565b6100f76101f8366004611458565b6001600160a01b031660009081526002602052604090205490565b600160209081526000928352604080842090915290825290208054610237906115c6565b80601f0160208091040260200160405190810160405280929190818152602001828054610263906115c6565b80156102b05780601f10610285576101008083540402835291602001916102b0565b820191906000526020600020905b81548152906001019060200180831161029357829003601f168201915b505050505081565b6001600160a01b0380831660009081526001602090815260408083209385168352929052208054606091906102ec906115c6565b80601f0160208091040260200160405190810160405280929190818152602001828054610318906115c6565b80156103655780601f1061033a57610100808354040283529160200191610365565b820191906000526020600020905b81548152906001019060200180831161034857829003601f168201915b505050505090505b92915050565b61037b611365565b6040805161014081019091526004600a6000835b828210156103d0576040805180820190915260028302850180546001600160a01b03168252600190810154602080840191909152918352909201910161038f565b50505050905090565b60606003805480602002602001604051908101604052809291908181526020016000905b828210156103d0576000848152602090819020604080516080810182526004860290920180546001600160a01b0390811684526001820154169383019390935260028301805492939291840191610453906115c6565b80601f016020809104026020016040519081016040528092919081815260200182805461047f906115c6565b80156104cc5780601f106104a1576101008083540402835291602001916104cc565b820191906000526020600020905b8154815290600101906020018083116104af57829003601f168201915b505050505081526020016003820180546104e5906115c6565b80601f0160208091040260200160405190810160405280929190818152602001828054610511906115c6565b801561055e5780601f106105335761010080835404028352916020019161055e565b820191906000526020600020905b81548152906001019060200180831161054157829003601f168201915b505050505081525050815260200190600101906103fd565b6003818154811061058657600080fd5b60009182526020909120600490910201805460018201546002830180546001600160a01b0393841695509290911692916105bf906115c6565b80601f01602080910402602001604051908101604052809291908181526020018280546105eb906115c6565b80156106385780601f1061060d57610100808354040283529160200191610638565b820191906000526020600020905b81548152906001019060200180831161061b57829003601f168201915b50505050509080600301805461064d906115c6565b80601f0160208091040260200160405190810160405280929190818152602001828054610679906115c6565b80156106c65780601f1061069b576101008083540402835291602001916106c6565b820191906000526020600020905b8154815290600101906020018083116106a957829003601f168201915b5050505050905084565b600481600a81106106e057600080fd5b6002020180546001909101546001600160a01b03909116915082565b6000546001600160a01b031633146107545760405162461bcd60e51b81526020600482015260166024820152752737ba103a34329031b7b73a3930b1ba1037bbb732b960511b60448201526064015b60405180910390fd5b6040805160008082526020808301808552835190206001600160a01b0380881684526001835285842090871684529091529083902085938593610798929101611600565b60405160208183030381529060405280519060200120146107cb5760405162461bcd60e51b815260040161074b90611676565b6107f28484604051806040016040528060048152602001630736c61760e41b8152506108e5565b50505050565b6000546001600160a01b0316331461084b5760405162461bcd60e51b81526020600482015260166024820152752737ba103a34329031b7b73a3930b1ba1037bbb732b960511b604482015260640161074b565b6040805160008082526020808301808552835190206001600160a01b038088168452600183528584209087168452909152908390208593859361088f929101611600565b60405160208183030381529060405280519060200120146108c25760405162461bcd60e51b815260040161074b90611676565b6107f28484604051806040016040528060048152602001636b69737360e01b8152505b6001600160a01b0380841660009081526001602090815260408083209386168352929052206109148282611715565b5061091f8383610940565b6109298383610e26565b610932836111ca565b61093b826111ca565b505050565b6001600160a01b03808316600090815260016020908152604080832093851683529290529081208054610972906115c6565b80601f016020809104026020016040519081016040528092919081815260200182805461099e906115c6565b80156109eb5780601f106109c0576101008083540402835291602001916109eb565b820191906000526020600020905b8154815290600101906020018083116109ce57829003601f168201915b5050506001600160a01b038086166000908152600160209081526040808320938a16835292905290812080549495509093909250610a2991506115c6565b80601f0160208091040260200160405190810160405280929190818152602001828054610a55906115c6565b8015610aa25780601f10610a7757610100808354040283529160200191610aa2565b820191906000526020600020905b815481529060010190602001808311610a8557829003601f168201915b50505050509050604051602001610ac390636b69737360e01b815260040190565b6040516020818303038152906040528051906020012082604051602001610aea91906117d5565b60405160208183030381529060405280519060200120148015610b5a5750604051636b69737360e01b60208201526024016040516020818303038152906040528051906020012081604051602001610b4291906117d5565b60405160208183030381529060405280519060200120145b15610bc1576001600160a01b0384166000908152600260205260408120805460019290610b88908490611807565b90915550506001600160a01b0383166000908152600260205260408120805460019290610bb6908490611807565b909155506107f29050565b604051636b69737360e01b60208201526024016040516020818303038152906040528051906020012082604051602001610bfb91906117d5565b60405160208183030381529060405280519060200120148015610c6b5750604051630736c61760e41b60208201526024016040516020818303038152906040528051906020012081604051602001610c5391906117d5565b60405160208183030381529060405280519060200120145b15610c9b576001600160a01b03831660009081526002602081905260408220805491929091610bb6908490611807565b604051630736c61760e41b60208201526024016040516020818303038152906040528051906020012082604051602001610cd591906117d5565b60405160208183030381529060405280519060200120148015610d455750604051636b69737360e01b60208201526024016040516020818303038152906040528051906020012081604051602001610d2d91906117d5565b60405160208183030381529060405280519060200120145b15610d75576001600160a01b03841660009081526002602081905260408220805491929091610bb6908490611807565b604051630736c61760e41b60208201526024016040516020818303038152906040528051906020012082604051602001610daf91906117d5565b60405160208183030381529060405280519060200120148015610e1f5750604051630736c61760e41b60208201526024016040516020818303038152906040528051906020012081604051602001610e0791906117d5565b60405160208183030381529060405280519060200120145b5050505050565b604080516080810182526001600160a01b0380851680835290841660208084018290526000928352600181528483209183525282812080549193830191610e6c906115c6565b80601f0160208091040260200160405190810160405280929190818152602001828054610e98906115c6565b8015610ee55780601f10610eba57610100808354040283529160200191610ee5565b820191906000526020600020905b815481529060010190602001808311610ec857829003601f168201915b50505091835250506001600160a01b03808516600090815260016020908152604080832093891683529281529190208054919092019190610f25906115c6565b80601f0160208091040260200160405190810160405280929190818152602001828054610f51906115c6565b8015610f9e5780601f10610f7357610100808354040283529160200191610f9e565b820191906000526020600020905b815481529060010190602001808311610f8157829003601f168201915b50505050508152509050600a60038054905010156110925760038054600181018255600091909152815160049091027fc2575a0e9e593c00f959f8c92f12db2869c3395a3b0502d05e2516446f71f85b810180546001600160a01b039384166001600160a01b031991821617825560208501517fc2575a0e9e593c00f959f8c92f12db2869c3395a3b0502d05e2516446f71f85c840180549190951691161790925560408301518392917fc2575a0e9e593c00f959f8c92f12db2869c3395a3b0502d05e2516446f71f85d01906110759082611715565b506060820151600382019061108a9082611715565b505050505050565b60005b600981101561115b5760036110ab826001611807565b815481106110bb576110bb61181a565b9060005260206000209060040201600382815481106110dc576110dc61181a565b60009182526020909120825460049092020180546001600160a01b039283166001600160a01b031991821617825560018085015490830180549190941691161790915560028082019061113190840182611830565b5060038181019061114490840182611830565b50905050808061115390611903565b915050611095565b508060036009815481106111715761117161181a565b6000918252602091829020835160049092020180546001600160a01b039283166001600160a01b031991821617825592840151600182018054919093169316929092179055604082015160028201906110759082611715565b6001600160a01b038116600090815260026020526040812054905b600a81101561093b57826001600160a01b0316600482600a811061120b5761120b61181a565b60020201546001600160a01b0316036112425781600482600a81106112325761123261181a565b6002020160010181905550505050565b600481600a81106112555761125561181a565b60020201600101548211156113535760095b818111156112e757600461127c60018361191c565b600a811061128c5761128c61181a565b60020201600482600a81106112a3576112a361181a565b82546002919091029190910180546001600160a01b0319166001600160a01b03909216919091178155600191820154910155806112df8161192f565b915050611267565b506040518060400160405280846001600160a01b0316815260200183815250600482600a81106113195761131961181a565b82516002919091029190910180546001600160a01b0319166001600160a01b03909216919091178155602090910151600190910155505050565b8061135d81611903565b9150506111e5565b604051806101400160405280600a905b60408051808201909152600080825260208201528152602001906001900390816113755790505090565b80356001600160a01b03811681146113b657600080fd5b919050565b600080604083850312156113ce57600080fd5b6113d78361139f565b91506113e56020840161139f565b90509250929050565b60005b838110156114095781810151838201526020016113f1565b50506000910152565b6000815180845261142a8160208601602086016113ee565b601f01601f19169290920160200192915050565b6020815260006114516020830184611412565b9392505050565b60006020828403121561146a57600080fd5b6114518261139f565b6102808101818360005b600a8110156114b157815180516001600160a01b03168452602090810151818501526040909301929091019060010161147d565b50505092915050565b60006020808301818452808551808352604092508286019150828160051b87010184880160005b8381101561155657888303603f19018552815180516001600160a01b0390811685528882015116888501528681015160808886018190529061152582870182611412565b915050606080830151925085820381870152506115428183611412565b9689019694505050908601906001016114e1565b509098975050505050505050565b60006020828403121561157657600080fd5b5035919050565b6001600160a01b038581168252841660208201526080604082018190526000906115a990830185611412565b82810360608401526115bb8185611412565b979650505050505050565b600181811c908216806115da57607f821691505b6020821081036115fa57634e487b7160e01b600052602260045260246000fd5b50919050565b600080835461160e816115c6565b60018281168015611626576001811461163b5761166a565b60ff198416875282151583028701945061166a565b8760005260208060002060005b858110156116615781548a820152908401908201611648565b50505082870194505b50929695505050505050565b60208082526023908201527f416374696f6e20616c72656164792074616b656e206f6e20746869732070657260408201526239b7b760e91b606082015260800190565b634e487b7160e01b600052604160045260246000fd5b601f82111561093b57600081815260208120601f850160051c810160208610156116f65750805b601f850160051c820191505b8181101561108a57828155600101611702565b815167ffffffffffffffff81111561172f5761172f6116b9565b6117438161173d84546115c6565b846116cf565b602080601f83116001811461177857600084156117605750858301515b600019600386901b1c1916600185901b17855561108a565b600085815260208120601f198616915b828110156117a757888601518255948401946001909101908401611788565b50858210156117c55787850151600019600388901b60f8161c191681555b5050505050600190811b01905550565b600082516117e78184602087016113ee565b9190910192915050565b634e487b7160e01b600052601160045260246000fd5b8082018082111561036d5761036d6117f1565b634e487b7160e01b600052603260045260246000fd5b81810361183b575050565b61184582546115c6565b67ffffffffffffffff81111561185d5761185d6116b9565b61186b8161173d84546115c6565b6000601f82116001811461189f57600083156118875750848201545b600019600385901b1c1916600184901b178455610e1f565b600085815260209020601f19841690600086815260209020845b838110156118d957828601548255600195860195909101906020016118b9565b50858310156117c55793015460001960f8600387901b161c19169092555050600190811b01905550565b600060018201611915576119156117f1565b5060010190565b8181038181111561036d5761036d6117f1565b60008161193e5761193e6117f1565b50600019019056fea264697066735822122059887ac7df62abe7db78454488be19a2289680cc686f2193e0fd07456825794964736f6c63430008110033",
    "linkReferences": {},
    "deployedLinkReferences": {}
}